S0270000626C655F7468726561645F726F757465725F776972656C6573735F756172742E737265630B
S21400000000800120F1040000350500000D1E0000F0
S21400001000000000000000000000000000000000DB
S214000020000000000000000000000000218F00001B
S2140000300000000000000000D58F000019900000AE
S214000040490500004D05000051050000550500005B
S21400005031050000310500003105000031050000C3
S214000060590500005D05000061050000310500002F
S214000070650500003105000031050000310500006F
S2140000803105000031050000310500003105000093
S2140000903105000031050000310500003105000083
S2140000A03105000031050000310500003105000073
S2140000B0310500006905000031050000310500002B
S214000400FFFFFFFFFFFFFFFFFFFFFFFFFEFFFFFFF8
S21400041810B5064C2378002B07D1054B002B02D0CD
S214000428044800E000BF0123237010BD5888FF1F52
S21400043800000000FCE7050008B5084B002B03D0B9
S2140004480748084900E000BF07480368002B03D0A8
S214000458064B002B00D0984708BDC0460000000099
S214000468FCE705005C88FF1F5488FF1F000000009B
S214000478164B002B00D1144B9D46402292029A1A26
S214000488924600218B460F461348144A121A56F015
S214000498E8FF0F4B002B00D098470E4B002B00D0E0
S2140004A898470020002104000D000D48002802D0BF
S2140004B80C4800E000BF56F0A5FF200029000DF00C
S2140004C84FFD56F089FFC046000008000080012056
S2140004D800000000000000005888FF1FE09C002075
S2140004E8000000000000000072B6084808490160D5
S2140004F8084880470849094A094B9B1A03DD043B0C
S214000508C858D050FBDC62B60648804708ED00E0C5
S21400051800000000BD7400003CE80500C080FF1F16
S2140005285888FF1F790400000E4800470E48004709
S2140005380E4800470E4800470E4800470E4800473A
S2140005480E4800470E4800470E4800470E4800472A
S2140005580E4800470E4800470E4800470E4800471A
S2140005680E48004731050000350500000D1E000046
S214000578218F0000D58F000019900000195A00003E
S214000588295A0000395A0000495A0000055F000041
S2140005981D5F00000D59000061620000455900000B
S2140005A802780B7801300131002A01D09A42F7D040
S2140005B8D01A704702B471464908490009564900DE
S2140005C88E4402BC7047C04602B4714649084900CA
S2140005D8095C49008E4402BC7047C04603B47146A5
S2140005E8490840004900095A49008E4403BC704730
S2140005F8002934D00123002210B488422CD30124C9
S2140006082407A14204D2814202D209011B01F8E75D
S214000618E400A14204D2814202D249005B00F8E716
S214000628884201D3401A1A434C08A04202D3001B42
S2140006385C0822438C08A04202D3001B9C08224375
S214000648CC08A04202D3001BDC082243002803D0B3
S2140006581B0901D00909E3E7101C10BC70470028E5
S21400066801D00020C04307B4024802A140180290F7
S21400067803BDC046D90000000029F0D003B5FFF737
S214000688B9FF0EBC4243891A1847C046002941D014
S21400069810B4041C4C40A44601230022002900D5AF
S2140006A84942002800D5404288422CD3012424071A
S2140006B8A14204D2814202D209011B01F8E7E400F4
S2140006C8A14204D2814202D249005B00F8E7884280
S2140006D801D3401A1A434C08A04202D3001B5C08F8
S2140006E822438C08A04202D3001B9C082243CC0855
S2140006F8A04202D3001BDC082243002803D01B09B3
S21400070801D00909E3E7101C6446002C00D54042D6
S21400071810BC7047002806D003DB0020C043400802
S21400072801E08020000607B4024802A140180290A3
S21400073803BDC046190000000029EBD003B5FFF73B
S214000748A7FF0EBC4243891A1847C0467047C046E2
S214000758D0400B1CD1409C46203AD3401843524206
S21400076863469340184370479140031C90409C464C
S214000778203A9340194352426346D3401943704780
S2140007888446081C6146FFE71FB500F0C7FB002833
S21400079801D40021C8421FBD10B500F04DFB4042F1
S2140007A8013010BD10B500F0B9FB002801DB0020B1
S2140007B810BD012010BDC04610B500F0AFFB0028E4
S2140007C801DD002010BD012010BDC04610B500F0A8
S2140007D85DFB002801DC002010BD012010BDC046CE
S2140007E810B500F053FB002801DA002010BD0120E8
S2140007F810BDC046002B11D1002A0FD1002900D108
S214000808002802D00021C943081C07B4024802A1E8
S2140008184018029003BDC04635FFFFFF03B4684684
S21400082801B5029800F05CF8019B9E4602B00CBC2D
S2140008387047C0469C460304F0B51B0C17043F0CD3
S214000848150C1E1C041C000C7E436B434743454393
S214000858FB18300C1818874202D980235B02ED1863
S214000868030CED1863465C434A433604360CA1185D
S214000878000480194919F0BD9E2110B5C905041C4D
S214000888FFF7AEFF002803D1201C00F033FE10BD92
S2140008989E21C905201C00F0B7FC00F02BFE802323
S2140008A81B06C018F3E7C046F0B583B0161C1F1C1D
S2140008B80090019100F008FF041C0D1C221C2B1C44
S2140008C8301C391CFFF7B6FF009A019B121A8B41A1
S2140008D80899201C0A604B60291C03B0F0BDC0466E
S2140008E8F0B583B0141C1D1C0090019101F0C8F8E7
S2140008F8221C2B1C061C0F1CFFF79CFF009A019B52
S214000908121A8B410899301C0A604B60391C03B0D8
S214000918F0BDC046F8B543024400C50F4E02480075
S214000928240E2A1C9B09000EC90FB6098D425BD0FF
S214000938221A002A00DC89E000281DD1002E00D0EB
S21400094875E0580704D00F221A40042A00D0043352
S2140009588021C90419402A1C00293AD00134FF2CEA
S21400096800D17FE09B015B0A5B02E4B2E405580A0B
S214000978D20720431043F8BDFF2CE2D08021C904DB
S2140009880E431B2A00DD2DE1311C2020D140821A9F
S2140009989640721E96410E439B1B5801D1D59B016B
S2140009A89F09381C00F072FE421F974094425BDC99
S2140009B8141B1F231B1B3A1C9F40611C3B1CCA4070
S2140009C85F1EBB4113430024BBE7131EB9D10023A7
S2140009D80022DB08FF2C04D1002B43D08020C00364
S2140009E803435B025B0ABFE7211A002940DD0028A3
S2140009F823D0FF2CA5D08020C00406431B2900DD89
S214000A08EEE0301C2027C840791A8E40711E8E41B1
S214000A1806439B19590100D493E70134FF2C55D09F
S214000A28714901221A400B405B08134389E7013AD3
S214000A38002AB1D0FF2CA4D183E7002E00D180E78E
S214000A4801390029E5D0FF2CD8D17AE7002A1BD136
S214000A58621CD2B2012A4BDD9F1B7A0123D5F71AF6
S214000A680D1C9EE700237FE75F4BA41A3B4068E710
S214000A78002946D1611CC8B2012829DDFF2924D0E7
S214000A88F3185B080C1C5CE7002C13D0FF2818D062
S214000A988024E404524223431B2A4DDD0123F31A23
S214000AA8041C0D1C79E7002F00D07AE700230022EB
S214000AB800248EE7002B3BD0D243002AEFD0FF2835
S214000AC8EAD1331CFF240D1C3BE7FF24002380E7F4
S214000AD8002C5CD1002B00D180E0002E00D130E73E
S214000AE89B19580100D42CE73F4A0124134028E7F5
S214000AF8002C15D1002B40D1002E63D0331C0D1CC2
S214000B081FE7002C21D1002B54D0C943002904D05C
S214000B18FF284CD01B2958DD01239B19041C79E7B4
S214000B28002B19D1002E48D0331C0D1CFF2408E7D3
S214000B38331C041C0D1C04E71C1C2025D440AA1AD0
S214000B4893405A1E93412343A9E7FF282FD08024B9
S214000B58E40449422343DDE7FF24002E00D1F0E6F3
S214000B688022DB08D203134204D0F608164201D1CD
S214000B78331C0D1CDB00FF24E3E6002E00D1E0E664
S214000B889A1B500100D420E7F31A0D1CD9E6002B57
S214000B980DD0FF24002E00D1D3E68022DB08D20336
S214000BA81342E7D0F6081642E4D1331CE2E7331CBA
S214000BB8FF24C6E6331C041CC3E6802300229B04DD
S214000BC8FF2406E7231C002203E71C1C2027CC4032
S214000BD8791A8B40591E8B4123439EE7331CB0E697
S214000BE8012616E70126D7E6FFFFFFFBF0B55F46AE
S214000BF856464D464446F0B446024500C00F85B0FA
S214000C080F1C760A2D0E804641D0FF2D26D0802454
S214000C18240400212643F6007F3D89468B46F90FBB
S214000C287C027800640A000E00918A463CD0FF28B1
S214000C3834D080231B041C430023E4007F38019330
S214000C48009F4346019A7B4049469C4611430F291C
S214000C5800D971E0764F89007F58BF46002E3ED1F6
S214000C680822022391469B46D9E75A46341CC246B8
S214000C7801920199022937D0032900D1CFE0012932
S214000C8800D0ABE053460B400022002632E0002E90
S214000C9819D10421012289469346C0E7221C531E17
S214000CA89A4102320192CBE701270197002CC7D060
S214000CB8201C00F0EBFC431F9C4076235B4200217F
S214000CC8181A0191BCE7301C00F0E0FC7625431F9B
S214000CD89E406D4200232D1A99469B469FE70C239B
S214000CE8032199468B469AE7D446012367463B403C
S214000CF8FF2200267602D205700ADB071043184347
S214000D0805B03CBC90469946A246AB46F0BD802648
S214000D180023F603FF22EDE700220026EAE78020FC
S214000D28C00306423BD0044239D1061C264376024D
S214000D38760A009BFF22DDE7281A039076016401F5
S214000D48A64239D3361B1A2201230120311C5B0028
S214000D587600002901DBB44201D8361B0343013A6A
S214000D68002AF3DC741EA641341C1C43039A7F3207
S214000D78002A27DD630704D00F232340042B00D066
S214000D880434270103D52B4B039A1C408032FE2AD5
S214000D980BDD012361460B40FF220026AAE7064327
S214000DA87602760A4346FF22A4E7A4010123674693
S214000DB8660AD2B23B409DE7039F1B22013F03977A
S214000DC80023C2E77E23039F5B42DB1B1B2B07DD4A
S214000DD8012361460B40002200268BE7D446C5E770
S214000DE8221CDA40039B9E339C40231C5C1EA341B6
S214000DF813435A0704D00F221A40042A00D004339B
S214000E085F0105D5012361460B400122002671E7E4
S214000E189E01624601231340760A00226AE780266E
S214000E28F60326437602760A5346FF2262E7C04652
S214000E38288A0500FFFFFFF74A02430270B55C0ADE
S214000E48550A43004A001B0EC60F120EC90FFF2B89
S214000E5805D0FF2A08D0012093420BD070BD012090
S214000E68002CFBD1FF2AF6D10120002DF6D1012057
S214000E789342F3D1AC42F1D18E4205D0002BEDD18E
S214000E88201C441EA041E9E70020E7E74A02430287
S214000E98F0B55C0A550A43004A001B0EC60F120E30
S214000EA8C90FFF2B31D0FF2A34D0002B16D1604251
S214000EB860418446002A14D0002820D18E4217D1DB
S214000EC8934215DC04DBAC4212D80020AC4212D2A6
S214000ED8704270414042012318430CE0002AEDD1CD
S214000EE894466F426F416046002805D1002FE5D032
S214000EF8704201231843F0BD0020002FFBD1484262
S214000F084841404201231843F5E7002CCBD0022085
S214000F184042F0E7002DC8D0F9E7C0464A0243022F
S214000F28F0B55C0A550A43004A001B0EC60F120E9F
S214000F38C90FFF2B27D0FF2A29D0002B10D0002A54
S214000F4815D194466F426F416046002815D00020A0
S214000F58002F04D148424841404201231843F0BDBF
S214000F68604260418446002AECD00028F2D18E42C6
S214000F7811D0704201231843F1E7002FF7D07042D2
S214000F8801231843EBE70220002CE8D1D3E7022020
S214000F98002DE4D1D1E79342EBDC04DBAC42E8D881
S214000FA80020AC42DBD27042704140420123184315
S214000FB8D5E7C046F0B55F4656464D464446F0B4BB
S214000FC84402460083B00F1C640A360EC50F002E76
S214000FD841D0FF2E22D080231B0400201C43E400AF
S214000FE87F3E82468046391C4B007F02C90F7F0A27
S214000FF81B0E8B463BD0FF2B34D08022120417439F
S214001008FF007F3B00215A466A40019252460A4337
S2140010180F2A63D87A48920082589746002C3FD108
S2140010280822022392469846DDE7019540460228A4
S2140010382AD1019A01251540FF2300246402DB0506
S214001048600AED071843284303B03CBC904699460F
S214001058A246AB46F0BD002C27D1042001228246CA
S2140010689046C0E7391C4A1E91410231CBE7012160
S214001078002FC8D0381C00F009FB431F9F4076237A
S2140010885B421B1A0021BEE7032800D1AEE0012808
S2140010984FD1019842461040C5B200230024CDE740
S2140010A80C2303209A4680469DE7201C00F0EEFAA3
S2140010B87626431F9C4076420023361A9A46984660
S2140010C891E780240025E403FF23B7E75B463C1C32
S2140010D801938846AAE73C1C8846A7E7250C240403
S2140010E83A0C240C3F04F6183F0C211C231C7943A9
S2140010F853436F435543FB180A0C9B18B1469F424F
S21400110802D980225202AD1809041A04090C521892
S21400111894011B0C611E8C41920EED181443AD0110
S2140011282C43230105D5012263080120144081447D
S2140011381C434B467F33002B2DDD600704D00F225F
S2140011482240042A00D00434220103D52D4B1C402B
S2140011584B468033FE2B17DD019B01251D400024DE
S214001168FF236BE78020C003044208D0074206D15D
S214001178041C3C436402640A5D46FF235EE704439E
S2140011886402640AFF2359E70198A4010125640A4A
S214001198DBB2054052E77E235B424A469B1A1B2B6E
S2140011A805DD019B01251D400024002346E7221C7F
S2140011B8DA404B469E339C40231C5C1EA3411343D7
S2140011C8580704D00F221A40042A00D004335A01C4
S2140011D805D5019B01251D40002401232EE7019813
S2140011E89C010125640A0540002327E78027FF03A2
S2140011F8019B3C43640201251D40640AFF231DE74A
S214001208688A0500FFFFFFF7F8B5C20F43024400DF
S2140012184D024800240E161C9B09000EC90FAD0986
S214001228FF2800D183E0012779408A425CD0221A41
S214001238002A00DC8EE000281ED1002D00D07AE0BF
S214001248580704D00F221A40042A00D004338021FD
S214001258C90401221940324000293AD00134FF2C33
S21400126800D183E09B015B0A5B02E4B2E405580AFE
S214001278D20720431043F8BDFF2CE1D08021C904D3
S2140012880D431B2A00DD31E1291C2020D140821A9B
S21400129895406A1E95410D435B1B5801D0D59B01AE
S2140012A89F09381C00F0F2F9421F974094425FDC11
S2140012B8141B1F231B1B3A1C9F40611C3B1CCA4067
S2140012C85F1EBB4113430024BAE7131EB8D10023A0
S2140012D80022DB08FF2C04D1002B47D08020C00357
S2140012E803435B025B0ABFE7211A002944DD002896
S2140012F827D0FF2CA4D08020C00405431B2900DD7E
S214001308F2E0281C2027C840791A8D40691E8D41B6
S21400131805435B19590100D492E70134FF2C59D0D4
S214001328734901221A400B405B08134388E7002DD7
S21400133800D07AE777E7013A002AADD0FF2CA0D193
S2140013487EE7002D00D17BE701390029E1D0FF2C8C
S214001358D4D175E7002A1BD1621CD2B2012A4BDD14
S2140013685F1B7A0123D5EF1A0E1C9AE700237BE74A
S2140013785F4BA41A3B4063E7002946D1611CC8B2FC
S214001388012829DDFF2924D0EB185B080C1C57E739
S214001398002C13D0FF2818D08024E404524223439C
S2140013A81B2A4DDD0123EB1A041C0E1C75E7002FC3
S2140013B800D076E70023002200248AE7002B3BD0E3
S2140013C8D243002AEFD0FF28EAD12B1CFF240E1C9C
S2140013D836E7FF2400237CE7002C5CD1002B00D1E5
S2140013E880E0002D00D12BE75B19580100D427E7D1
S2140013F83F4A0124134023E7002C15D1002B40D187
S214001408002D63D02B1C0E1C1AE7002C21D1002BB4
S21400141854D0C943002904D0FF284CD01B2958DDD6
S21400142801235B19041C75E7002B19D1002D48D041
S2140014382B1C0E1CFF2403E72B1C041C0E1CFFE6AB
S2140014481C1C2026D440B21A93405A1E93412343AC
S214001458A9E7FF282FD08024E40449422343DDE788
S214001468FF24002D00D1EBE68022DB08D2031342CE
S21400147804D0ED08154201D12B1C0E1CDB00FF24FE
S214001488DEE6002D00D1DBE65A1B500100D41CE72F
S214001498EB1A0E1CD4E6002B0DD0FF24002D00D12D
S2140014A8CEE68022DB08D2031342E7D0ED081542C9
S2140014B8E4D12B1CE2E72B1CFF24C1E62B1C041CE2
S2140014C8BEE6802300229B04FF2402E7231C00229A
S2140014D8FFE61C1C2027CC40791A8B40591E8B41EE
S2140014E823439EE72B1CABE6012512E70125D3E62E
S2140014F8FFFFFFFB4302590A4300C20F1B0E0020E2
S2140015087E2B0DDD9D2B0CDC802000040143952BE3
S2140015180ADC9620C31AD9404842002A00D1081C83
S2140015287047034BD018FBE7963B9940F4E7C04654
S214001538FFFFFF7F70B5041E3CD0C60F00D04442A4
S214001548201C00F0A3F89E23251C1B1A962B0CDCE7
S214001558083884406402640ADBB2321C6402DB0585
S214001568600AD2071843104370BD992B0ADD05227E
S214001578121A211CD1400A1C011C1B318D40691E01
S2140015888D411543052801DD421F9540164C2C4019
S2140015986A0704D00F221540042D00D004346101D8
S2140015A80CD59F23181AFF281AD0A401640AC3B2C0
S2140015B8321CD3E7002200230024CFE7E408FF2BE1
S2140015C804D06402640ADBB2321CC7E7002C04D0DD
S2140015D88020C00304436402640A321CFF23BDE76C
S2140015E8321CFF230024B9E7FFFFFFFB10B5041EDB
S2140015F833D000F04BF89E231B1A962B09DC0838CC
S21400160884406402640ADBB26402DB05600A18439D
S21400161810BD992B0ADD0522121A211CD1400A1C7E
S214001628011C1B318C40611E8C411443052801DDCA
S214001638421F9440144A2240610704D00F210C40F0
S214001648042C00D0043251010AD59F23181AFF280B
S21400165816D09401640AC3B2D6E700230024D3E761
S214001668D208FF2B03D05402640ADBB2CCE7002A68
S21400167806D08024E40314436402640AFF23C3E705
S214001688FF230024C0E7C046FFFFFFFB1C21012301
S2140016981B04984201D3000C10391B0A984201D348
S2140016A8000A08391B09984201D30009043902A226
S2140016B8105C40187047C04604030202010101018D
S2140016C80000000000000000F0B544465F4656469D
S2140016D84D46F0B41C1C85B0002900DADBE00F1C70
S2140016E80021061C8A46101C191C002C00DAC9E0CA
S2140016F80196009089468046002951D1B84200D804
S21400170871E0FFF7C3FF002809D020234546311CA7
S2140017181B1A85408740D940A8460F438640424654
S214001728150C13041B0C291C381C9B46FEF760FF7F
S2140017385B464343041C291C381C9946FEF79CFF4D
S214001748330C08041843814509D94044631E804574
S21400175800D978E1814500D875E1023C4044494605
S214001768411A8946081C291CFEF742FF5A4642437E
S214001778071C291C48469346FEF77EFF36040904D4
S214001788360C0E43B34507D946447B1EB04502D8EF
S214001798023FB34500D81F1C24042743002403E057
S2140017A8B94211D9002400275246381C211C002AA9
S2140017B803D03B1C00215842A14105B03CBC9046D2
S2140017C89946A246AB46F0BD081CFFF75FFF041E0D
S2140017D800D0BFE0B94500D242E1019D0099071C40
S2140017E88D424741E0E7002804D101200021FEF79A
S2140017F8FFFE80464046FFF749FF002852D1414683
S21400180844460B043C1B1B0CA3460D0C00930124FA
S214001818291C5846FEF7ECFE009F81464743291CC4
S2140018285846FEF729FF330C090419438F4208D996
S2140018384B464144013B884502D88F4200D91AE1FD
S2140018489946C91B8B46081C291CFEF7D1FE009B2F
S214001858291C4343071C58460093FEF70DFF360421
S214001868009D0904360C0E43B54207D946447B1E34
S214001878B04502D8023FB54200D81F1C49460E04A0
S214001888374391E75246D243031C0C1C924600216C
S2140018985842A1412CE7002746428F410121494280
S2140018A88A4620E720231B1A4246351C82403C1CE9
S2140018B8DD40DC4087402B1C150C3B43291C86402A
S2140018C8201C009317049046FEF792FE3F0C011C5E
S2140018D8794381468B46201C291CFEF7CDFE009CCA
S2140018E80904230C19438B450CD94B464144013B4C
S2140018F8884500D9BDE08B4500D8BAE0022252429E
S214001908914441445C460C1B201C291C0194FEF79C
S2140019186FFE391C4143041C8B460198291CFEF7B0
S214001928ABFE009A090413041B0C19438B4509D90E
S2140019384144631E884500D997E08B4500D894E05B
S214001948023C41445B46CB1A49469B460B041C4363
S21400195800975DE7009D20231B1A4A468240DD401B
S2140019681543391C009AD94082408846311C00929B
S214001978D9403A1C82400B1C134301932F0C2B04AE
S2140019881B0C391C40460293FEF732FE029A81462B
S2140019984243391C40469346FEF76EFE019A0904F8
S2140019A8130C19438B450AD94B464919013B8D42FE
S2140019B85DD88B455BD902235B42994449195A4640
S2140019C88A1A101C391C0392FEF712FE029B8046E8
S2140019D84343391C03989B46FEF74EFE019A0904BA
S2140019E813041B0C19438B450AD943464919013B76
S2140019F88D4238D88B4536D902235B42984449191C
S214001A085D464D1BAB464946009D0F0442461743AC
S214001A182A04120C3B042D0C1B0C380C111C5943C1
S214001A2842436B436843D3180D0C5B198C469A42A5
S214001A3802D98022520280181D0C401983450CD307
S214001A4803D00024B0E61C1C89E665462A041B045D
S214001A58120C9B18A6409E42F3D2013F0024A3E630
S214001A6800240127A0E69846CAE71C1C6AE79946A0
S214001A78A5E7994646E70222524291444144E0E6E9
S214001A88F0B55F4656464D464446F0B40D1C85B044
S214001A98061C924698460290019103921F1C141C3D
S214001AA88346A946002B59D1AA4269D9101CFFF7CC
S214001AB8EDFD00280AD020231B1A311CD94085408A
S214001AC80B1C2B43864084409946B346250C2304BA
S214001AD81B0C291C48469846FEF78AFD4646071CF6
S214001AE84643291C4846FEF7C7FD5A460904130C08
S214001AF819438E4209D909197B1E8C4200D957E131
S214001B088E4200D854E1023F0919891B8946081CF1
S214001B18291CFEF76DFD43464343061C291C484610
S214001B289846FEF7A9FD5A46130409041B0C1943E8
S214001B38884508D90919731E8C4200D936E1023E39
S214001B48884500D832E1380430430027391C05B0F0
S214001B583CBC90469946A246AB46F0BD019A9342D5
S214001B6862D8181CFFF792FD041E60D1019B9F42A5
S214001B7800D22CE1029F03998F4260410027E5E7D7
S214001B88002A04D101200021FEF732FD041C201C87
S214001B98FFF77CFD002800D0B9E023042D1B1B0CA2
S214001BA8A946260C98460127311C4846FEF720FD14
S214001BB841464143051C8A464846311CFEF75CFDF3
S214001BC85A460804130C1843824507D900196B1E99
S214001BD8844202D8824500D910E11D1C5346C31A18
S214001BE8181C311C9A46FEF703FD414641438146C0
S214001BF888465046311CFEF73FFD5A461304090432
S214001C081B0C194388450BD94B460919013B8C42D6
S214001C1800D9CFE0884500D8CCE002235B4299443F
S214001C2828044946084391E7002700208EE720232A
S214001C381B1A424657468240DF40174352468240A8
S214001C480192321CDA40291CD9408540131C2B43CC
S214001C5802933D0C3B041B0C8846081C291C9A461C
S214001C68FEF7C6FC534643438146291C40469B461E
S214001C78FEF702FD029A0904130C19438B4506D990
S214001C884B46C919013B8F4200D8ABE099465A46E5
S214001C988A1A101C291C9346FEF7AAFC534643438F
S214001CA8291C804658469A46FEF7E6FC029A09041E
S214001CB815042D0C29438A4506D94346C919013B04
S214001CC88F4200D886E098465746CF1BBA46494604
S214001CD8019F0804424610433D042D0C03043F0CA4
S214001CE81B0C020C291C594355437B437A43EB18BB
S214001CF80F0CDB198C469D4202D980277F02D21929
S214001D081D0C521992455FD356D000271EE7202394
S214001D181B1A311C2F1CD940DF4085400B1C844001
S214001D282B4386400193B3462304260C1B0C381C11
S214001D38311C9846FEF75CFC42464243051C311CA3
S214001D48381C9146FEF798FC019F09043B0C194382
S214001D58894507D909196B1E8C424DD889454BD938
S214001D68023D09194A468A1A101C311C9246FEF78B
S214001D783FFC43464343071C311C50469946FEF732
S214001D887BFC019A090413041B0C1943894507D9DF
S214001D9809197B1E8C422DD889452BD9023F091973
S214001DA84B46CB1A2D0499462F43FDE61E1CCAE661
S214001DB81F1CAAE6994633E761460A041B04120C60
S214001DC89B18A6409E42A0D201380027BEE60027F0
S214001DD80120BBE68A4500D875E702235B42984493
S214001DE8C91971E78B4500D850E702235B4299442E
S214001DF8C9194CE71F1CD3E71D1CB3E7023D0019A1
S214001E08ECE6C04600BE70477047002070470000EA
S214001E18014B19707047C046C080FF1F08B505F013
S214001E28F9FC08BD08B505F0C5FE43425841C0B2E6
S214001E3808BD08B505F0BCFE43425841C0B208BD0F
S214001E4870B58EB0061C0D1C141C6846002138227E
S214001E5855F007FB1C236A466846211C1370167249
S214001E6803952FF027FA43425841C0B20EB070BD12
S214001E7807B50A1C6946073108702820FFF7E0FFF7
S214001E880EBD07B50A1C019001A97720FFF7D8FFF9
S214001E980EBD07B56B46D9710733191CFFF7D0FF7F
S214001EA80EBDF0B585B00F9C0091171C0193061C5B
S214001EB80025019B9D4227D069460F31221C97209A
S214001EC80E70FFF7BDFF0AA9221C9120FFF7B8FF86
S214001ED80CA9221C9020FFF7B3FF0DA9221C8F2007
S214001EE8FFF7AEFF93200121221CFFF7D2FFBD4269
S214001EF804D192200EA9221CFFF7A2FF009B0135F1
S214001F08F618EDB2F6B2D4E705B0F0BDF0B51C1C75
S214001F1889B0FF23002503900091019206AE0121A7
S214001F28221C5D20069507953370FFF7B2FF311C1B
S214001F38221C7C20FFF784FF0EA9221C7820FFF7BE
S214001F487FFF694601231231221C79200B70FFF7A8
S214001F5877FF6A461574009B019A5343DBB20293D7
S214001F686A46137C039A93427FD2019A934277D1AA
S214001F7804A9221C9620FFF763FF0021221C992043
S214001F88FFF787FF221C95200121FFF782FF00221A
S214001F986B465A746D4611352B78009A934228D2B0
S214001FA8029A6E46D318F37400271336291C221C8F
S214001FB89B200597FFF744FF311C221C8820FFF75B
S214001FC83FFF391C221C8920FFF763FF391C221C9F
S214001FD88A20FFF75EFF311C221C9720FFF730FF90
S214001FE8922005A9221CFFF72BFF2B7801332B70B4
S214001FF8D0E70021221C9A20FFF74BFF0121221C64
S2140020088620FFF746FF0021221C8720FFF741FFA6
S2140020180121221C9A20FFF73CFF0321221C862060
S214002028FFF737FF0421221C8720FFF732FF002125
S214002038221C9820FFF72DFF0121221C8B20FFF77A
S21400204828FF0021221C8C20FFF723FF0021221CDA
S2140020588D20FFF71EFF8E200121221CFFF719FF97
S2140020686A46137C013313747AE709B0F0BD07B5E6
S2140020780A1C6946073108705220FFF7E1FE0EBDBC
S21400208807B50A1C6946073108702120FFF7D8FEF5
S2140020980EBDF0B587B06E4603ACF0711D1C0092FD
S2140020A80F1C092200210736201C55F0DAF9FF23F9
S2140020B89620311C2A1C2370FFF7C2FE01280DD17A
S2140020C88520391C2A1CFFF7BBFE012806D1009B79
S2140020D89420211C2A1C2372FFF7B2FE07B0F0BD1D
S2140020E807B50090019130206946FFF7A9FE0EBD9E
S2140020F807B50A1C6946063108805320FFF7A0FE7C
S2140021080EBD07B50A1C6946063108805020FFF741
S21400211897FE0EBD70B58EB0061C0D1C141C6846C6
S2140021280021382255F09DF90E236A466846211C80
S2140021381370167203952FF0BDF843425841C0B28B
S2140021480EB070BD07B50023021C01A977200193C5
S214002158FFF7E0FF01980EBD13B500236C46E37148
S2140021680734021C211C5220FFF7D4FF207816BD26
S21400217813B500236C46E3710734021C211C21208A
S214002188FFF7C8FF207816BD37B5021C694600243D
S2140021980025302000940195FFF7BCFF00980199B0
S2140021A803B030BD13B500236C46E3800634021C2A
S2140021B8211C5320FFF7AEFF208816BD13B5002359
S2140021C86C46E3800634021C211C5020FFF7A2FF51
S2140021D8208816BD30B58FB0041C0D1C684600213B
S2140021E8382255F03EF96A461C2313702368684661
S2140021F813726368A468291C537203942FF05AF864
S2140022080FB030BD08B5011C1C2202480FF034F987
S21400221808BDC0467888FF1F10B5041C8EB0081C81
S214002228FFF7CCFF23786A461080137463786846F5
S214002238537463885382A268E36806920793E31D83
S214002248DA7F6B460333DA77627C01ABDA77A27CF7
S2140022580133DA77A269E3690A920B93E27C0CAB46
S2140022681A702EF017FC0EB010BD0000F7B5244B00
S2140022780192071C0E1C3820197872460EF06CF86E
S214002288041E37D019230370337872680372C2604D
S214002298337A0374002383740DF0C0FE237A012B6F
S2140022A801D1184A1370201C01992FF003F8002555
S2140022B80090A8421FD0134B1D700DF0A5FE124BC0
S2140022C85B68AB4211D0009A201C2271019A2260EA
S2140022D83278A571A560627198473378009D012B06
S2140022E809D1084B00221A7005E0201C0EF068F889
S2140022F8009D00E0F125019B3D71381C3B60FEBD4A
S214002308089105007488FF1F7888FF1FF8B5134BDF
S214002318051C0E1C3820197872460EF01DF8F12799
S214002328041E18D01E2303700F2303744374821CE4
S21400233800238374D3774375C3740375AA78C3726E
S21400234882722B88311C03812EF0B4FF071E02D040
S214002358201C0EF035F8381CF8BDC046089105005C
S214002368F7B573460193214B72461F78051C0E1C61
S2140023783820391C0DF0F0FF041E36D023230370D6
S2140023882B78311C03726B884381AA68EB6802615C
S21400239843612B7C03766B7C4376AA69EB69026201
S2140023A843620135EA7F031C28331A702EF082FF39
S2140023B8051E18D0201C0EF003F800210B1C0C4834
S2140023C80A1C32F06FF90B4C2369002B0DD008203D
S2140023D8391C019A0DF0C0FF002806D0066005716A
S2140023E82369984701E010F09BF8F7BD08910500AF
S2140023F8140005037888FF1FF0B591B001913822C4
S2140024080021051C02A8764655F02BF80E236A46CE
S2140024181372144B10201F78321C391C0DF09CFFC9
S214002428041E1CD028782DF069FB321C391C0DF0D0
S21400243893FF061E10D06A686B465A742A68059081
S214002448019902A81A742EF035FF2B686D68236070
S2140024586560A660207302E0201C0DF0B1FF201C0A
S21400246811B0F0BD08910500F7B50192404B051C68
S214002478808C0E1C4030197872460DF06DFF041ED5
S2140024886CD04030E063AA8C296A00270EF0F4FF6F
S2140024982770301CFFF792FE20812B78022B05D17F
S2140024A8301CFFF77FFE6761206106E0032B04D12E
S2140024B8301CFFF769FE20616161A968EA6821623D
S2140024C862626B78271C63766B8829376383AA7CDD
S2140024D8231C2C331A70EA7C00211A732B7C3B7061
S2140024E8AA8C231C28331A706A7CDA702B78237619
S2140024F8EB1DDA7F231C2A331A70AA69EB6922635C
S21400250863636B780091022B08D1AA68194B534075
S214002518EA6813435A425341DBB20093201C311C2D
S2140025282EF028FD00280ED03B7860722372019B9F
S214002538201C23600023636051F0A0F8301C37F09D
S21400254853F8B22110E00FF0EBFF301C37F04CF8D0
S21400255800994B424B41B721C91A05E051F08EF855
S214002568301C37F041F8B821022238F013FDF7BDC9
S21400257808910500FFFF0000F0B503788BB075469C
S214002588041C0E1C1B2B00D1B0E004D80D2B4ED01B
S2140025981A2B07D051E1242B00D10FE1252B00D1AF
S2140025A838E14AE1A84F7B68002B26D0437A0C20F6
S2140025B8002B02D1E07A0C30C0B2A44B2A1C197842
S2140025C80DF0CAFE051E15D0237A06600371637ADD
S2140025D84371002383718360637A002B0AD12169D3
S2140025E8002907D0E37A83710C30A860E27A216963
S2140025F80EF042FF7B68281C9847637A012B0CD1A3
S214002608934B002220691A7000280DD0031C9C33B7
S2140026181D680DF0D5FE281CF6E7002B04D12069AE
S214002628002801D00DF0CCFE0DF0EEFC05E10169A6
S2140026384A780B7812021A438B780F791B041A43D0
S214002648CB78887A1B061A434B791B023B438F7953
S2140026583F043B43CF7910313F063B43009100F0DF
S214002668C1FA01283ED1784F3A68002A3AD0784B0A
S2140026781B78002B36D0A07A744B2A1C1830197891
S2140026880DF06AFE051E2DD02369066159781A7862
S214002698090211439A78187912041143DA78120657
S2140026A811435A7912020243987900040243D879F2
S2140026B82960000602436A605A7A197A12020A43A7
S2140026C82A819A7A281CAA72DB7A1830EB7221695A
S2140026D80B7C2B73A27A61696A610EF0CDFE3B68AB
S2140026E8281C9847A0690DF06BFEA6E00027807CA2
S2140026F8A268E368009700F075FA012800D09CE00D
S214002708514B9B68BB4200D197E0504B2A1C2820AF
S21400271819780DF021FE051EBD4243D0E269A16975
S214002728631CC2608160D87F221DE877D27FEB1CCD
S214002738DA77231C30331A782B1DDA77A26AE36A15
S2140027482A616B61238AE21CAB83D27FAB1CDA77E3
S214002758A368E2682B606A600393A37CA21CAB772D
S2140027680493D37F6A1CD3779C466E62022802D1F4
S21400277889B2A960EF60049B022B04D103998BB23F
S2140027882B6000236B606246002A06D0301C36F0A9
S2140027982BFFB121022238F0FDFB2B4B281C9B682F
S2140027A898474AE0201C08300DF00AFE301C36F028
S2140027B81BFFB521022238F0EDFB3EE000210B1C82
S2140027C824480A1C31F06EFF1F4F3B69002B1ED0B1
S2140027D81E4B2A1C082019780DF0BEFD051E0FD0CA
S2140027E8237A06600371002B06D0301C36F0FCFEF8
S2140027F8B121022238F0CEFB3B69281C984706E038
S214002808301C36F0F1FEB521022238F0C3FB0FF07B
S214002818A5FE12E0037A022B03D1028A0261002287
S214002828426106A886608373238B216962690691D4
S2140028380792311C838150F05DFF201C0DF0C0FD0F
S21400284800200BB0F0BDC0467888FF1F0891050031
S2140028587488FF1F14000503F0B506788BB075461C
S2140028680595041C0F1C012E02D0022E22D0CCE0A7
S2140028780791037A07ADC1682B72437A0C22089138
S214002888291C6B720EF0F8FD614B5B69002B01D0BA
S214002898281C9847201C50F0F1FE637A002B06D0BF
S2140028A8381C36F0A1FEB121022238F073FB0FF077
S2140028B855FEAAE0C51CE87F012808D80B681868EA
S2140028C836F092FEB021321C38F064FB0DE0A37C93
S2140028D8022B0ED14F4BA2689A420AD1E368002B0E
S2140028E807D14D4B1B78002B03D1201C0DF068FD3B
S2140028F88BE0231C24330093A269E36900F072F985
S214002908012877D1454B38201978059A0DF024FD13
S214002918061E6AD00760E87F3071A57C7571238A29
S214002928AC46F380A168E268B160F260E36905919D
S214002938A16973613161238C3383231DDB7F738325
S214002948A26A0393F261631DDD7F731CDD77A31D06
S214002958DD7FB31CDD77231C2C331D78F31CDD7755
S214002968231C2D331B78351DEB770495226B636B80
S214002978B262F362231C38331D78331C30331D7063
S214002988351C002331352B707463022802D189B2B6
S2140029983161736163460025022B08D10599F560FD
S2140029A81C4D8BB2B3606B405D425D41EDB2E16B8E
S2140029B8201C039A0EF08CFD154B9B69002B05D046
S2140029C80499CA7F022A01D1301C9847321C3179F3
S2140029D81032301C50F06AFE3B68186836F004FE69
S2140029E86B426B41B421C91A0CE0221CE97F1832ED
S2140029F850F05CFE201C0DF0E3FC3B68186836F0CF
S214002A08F3FDB521022238F0C5FA00200BB0F0BD60
S214002A187888FF1FFFFF0000C080FF1F0891050091
S214002A2873B55A436D468918079CE9710735061C25
S214002A38291C9720221CFFF703FA002804D09220AE
S214002A48311C221CFFF766FB76BD37B50D1C6946A0
S214002A58073108709620141CFFF7F2F9012804D1F4
S214002A688520291C221CFFF755FB3EBD10B50C1C03
S214002A782EF024FA021C2060431C05D003480449A3
S214002A882EF06EFA034800E0002010BD6128000012
S214002A9881250000A88A0500F7B508A909780191DC
S214002AA8811E012922D80024211C124DA7007E1958
S214002AB8AC463568002D0FD0032802D12E686D6805
S214002AC803E000232E8992B21D1CB2420AD1AB4203
S214002AD808D16346D9190AE0019D012D02D10029C3
S214002AE800D1311C01340A2CDFD100E00021081C7B
S214002AF8FEBDC046C49DFF1F73B5002406A90D88F9
S214002B0803200094FFF7C8FF061C0820A6420AD038
S214002B18301C102100F09CF83368301C1D811021F1
S214002B2800F0ACF8201C76BDF0B5714687B002916F
S214002B3804920593191C0CAB1D880DAB1F780EABC1
S214002B481B78032003930B1C01210091FFF7A4FFB9
S214002B58041E01D1062031E00668002E11D1184B5C
S214002B6810201978029A0DF0F7FB20600028F1D0A3
S214002B781022311C0EF0A6FC012322685B4213814A
S214002B8802E0102100F064F804980599236818609C
S214002B9859600399D9720B4B26689D4201D035813E
S214002BA803E004A839F080F93081002F01D02268AC
S214002BB89772201C102100F061F8002007B0F0BDC5
S214002BC808910500FFFF000013B5002400940320B9
S214002BD8FFF762FF0423A04202D000F079F8231C16
S214002BE8181C16BD73B51249069E0C780125002CD4
S214002BF81CD000210F4D6D58002D03D10431282913
S214002C08F8D10FE000250095FFF746FFA84209D047
S214002C180368DA7A012A09D0002E01D09B7A33702D
S214002C28012503E0651E6C1EA541EDB2281C76BD85
S214002C38C180FF1FC49DFF1F014B002019707047FD
S214002C48C180FF1F014B18787047C046C180FF1F20
S214002C58084B012110B54942041C18680BF094F87B
S214002C68201C0CF059FF011E02D003480FF07CFA16
S214002C7810BDC0469888FF1F592C000008B50021D3
S214002C880DF042F8021E04D000200449031C0AF086
S214002C98FFFF034B18680BF099F808BD852C000059
S214002CA89888FF1F08B500210DF0D4FA021E06D03A
S214002CB80F2804D000200449031C0AF0E9FF034B40
S214002CC818680BF083F808BDAD2C00009888FF1F25
S214002CD808B50CF0A5FF021E06D00F2804D0002069
S214002CE80249031C0AF0D4FF08BDC046D92C0000D0
S214002CF838B50B4D00242B78A3420FD10BF03FF8C4
S214002D08084B1860A04202D001232B7006E0201C56
S214002D18221C231C04490AF0BBFF0124201C38BDD2
S214002D289488FF1F9888FF1FF92C000070B5214A69
S214002D3886B06B4662CA62C36C4662CA62C3002823
S214002D4820D11D4B1D49C3181A898A4224D0598997
S214002D58022915D11968002912D0023A92B21B2A04
S214002D680ED801249440221C154C224208D09A887A
S214002D780023934204D29C0000250D510133F8E746
S214002D880C30DEE70025605901210CF0EDFF0B281A
S214002D9804D10435182DF6D1002008E00028F8D014
S214002DA80020021C031C07490AF072FF012006B027
S214002DB870BDC04614870500288B0500FEFF00007E
S214002DC81352E008352D000008B50120FA2181408D
S214002DD80DF002FE024B012200201A7008BDC04604
S214002DE80CAEFF1F38B5041C4518AC4205D0217838
S214002DF8024808F06DFF0134F7E738BD2291050058
S214002E08F8B5061C0F1C151C002460003018AC42D0
S214002E1805D03A19024954F04FFB0134F5E7F8BDDE
S214002E28279105001FB56C460B34FF232370124B01
S214002E380F211868002203AB009433F0ADFD237809
S214002E48DA0701D40D4900E00D490E4808F040FFA6
S214002E5823789A0701D4094900E009490A4808F086
S214002E6837FF23785A0701D4044900E00449074885
S214002E7808F02EFF1FBDC04620AEFF1F2D9105008F
S214002E8833910500389105005591050074910500A9
S214002E981FB5FF236C46E372084B0B3418681121E4
S214002EA803AB0094002233F077FD2378002B01D182
S214002EB8034800E0034808F00BFF1FBD20AEFF1FC5
S214002EC890910500A29105001FB5FF236C46E3729A
S214002ED8084B0B341868152103AB0094002233F016
S214002EE85BFD2278044B9200D158044808F0F0FEA7
S214002EF81FBDC04620AEFF1F6481FF1FB6910500A8
S214002F0810B5134C2078FF2803D008F039FCFF23AF
S214002F182370104C104B207800221A70FF2803D01C
S214002F2808F02EFCFF2323700C4C2078FF2803D0D3
S214002F3808F026FCFF232370094C2068002803D0DD
S214002F480DF03EFA0023236008F058FE10BDC04678
S214002F585581FF1F5481FF1F08AEFF1F7C81FF1F8E
S214002F6830AEFF1F08B50FF075FE08BD08B503485C
S214002F7808F08EFE0FF0D8F9002008BDC2910500B3
S214002F8808B5094A00231078012804D104211370D3
S214002F980DF09CFD03E0054A1370054A1370FFF711
S214002FA8AFFF002008BDC0460CAEFF1F0484FF1FFD
S214002FB808AEFF1F08B50AF091FD002008BD000006
S214002FC870B50E1C90B0141C1D1C00281ED1111CB8
S214002FD82E2304AA0A2032F094F8104808F078FE47
S214002FE8463404A808F074FE2378022B02D10C4855
S214002FF808F06EFE002D0CD001AC0023201C311CFE
S2140030082A1C63550EF038FA201C00E0054808F024
S2140030185FFEFFF775FF10B070BDC046EF91050064
S214003028FE9105000492050008B5034B03481A688C
S214003038002131F06DFB08BD64AEFF1F753E000031
S21400304808B5034B03481A68002131F061FB08BD38
S21400305864AEFF1F813D0000F8B57246061C0C1CC6
S21400306800280FD100290DD1144B1878012804D157
S214003078197004210DF02AFD1FE0114B1970114B31
S21400308819701AE0671C381C00210DF065F9051E3A
S21400309813D000213A1C0EF015FA281C311C221CED
S2140030A80EF0EAF9084B09481A68291C31F030FB7B
S2140030B8002802D1281C0DF083F9F8BD0CAEFF1FBE
S2140030C80484FF1F08AEFF1F64AEFF1F19390000F7
S2140030D8F0B56B4C89B0236861680B4303D1694A25
S2140030E8A16891421CD06848022108F09DFD012184
S2140030F880223A2044F03DFA0021051C81223A201D
S21400310844F037FA0290002D0CD0211C5F4A2E237B
S2140031180A2031F0F6FF011C5D4808F0D9FD01E0F1
S21400312802931D1C23686268134304D1A268554B9A
S2140031389A4200D1A1E05448022108F075FD002DFE
S21400314800D198E0029BEF1ABD4203D106A8514968
S214003158514A04E0002F05D14E49504A06A854F0BB
S21400316889F980E03B1C0024181C0A21FDF740FA68
S214003178661CF6B2031E01D0341CF5E7281C039320
S214003188039B0A210133DBB20393FDF731FA0028CB
S214003198F6D103990334641AE4B203360394012083
S2140031A80A23013E5843002EFAD1291C7843FDF71E
S2140031B81FFA06AC82B23A49201C54F05BF9039A0F
S2140031C8267150B2013005AE032835D86B46153344
S2140031D8FDF7FAF9261D0F022378337062786B46DE
S2140031E85A756A4600239375A17804AA1170E17887
S2140031F808E023786A46337000235375617804AA7A
S2140032081170A1786A4651746A4693741EE030229B
S2140032183270217800221A7004AB1970617806E0C3
S214003228002230211A7004AB3170197021786B4671
S21400323859746B469A7409E01649184A301C54F0BB
S21400324819F904A81349174A54F014F904A815499B
S214003258FDF7A6F9002800D17EE7201C1249321C8B
S21400326804AB54F007F906AB00931048291C029AE1
S2140032783B1C08F02DFD44F07EF909B0F0BDC046B1
S21400328810AEFF1F0000FFFFEC91050034AEFF1FD5
S2140032981A920500E29A0500329205004AB5050022
S2140032A8C994050072CF0500369205003C920500C9
S2140032B807B5064B011C01901A68054831F028FA34
S2140032C8002802D101A831F0B4FA07BD64AEFF1F8A
S2140032D899340000F0B593B00C1C02A80021102207
S2140032E854F0BFF860684649FDF75AF9002808D038
S2140032F8444D6068291CFDF753F92E1C002838D069
S21400330831E0051C404B1B689D42F1D23F4BAF0095
S214003318DA59002A25D03E48291C08F0D9FC002690
S2140033283C4B1B689E421CD23B4AB300D15800292E
S21400333815D0364BDB5901933E330A7C1B789A42EC
S2140033480DD106AA2E230A2031F0DBFE334808F0FA
S214003358BFFC06A808F0BCFC314808F0B9FC0136EA
S214003368DEE70135CEE760682E49FDF719F9002833
S21400337842D1A16800293CD00A2002AA31F08AFD71
S214003388012801D0284835E0E06854F01FF845F0D9
S21400339861FA311C051C6068FDF702F9002806D0A2
S2140033A860682049FDF7FCF800281ED110E02B685D
S2140033B802A93E33187845F013FB0028F0D11B4BC2
S2140033C818681B4B8200D3585B7F002B0FD108E090
S2140033D82B6802A93E33187845F0A2FA0028EED0EA
S2140033E803E038F073FB002801D0124802E01248C8
S2140033F800E0124808F04CFC002013B0F0BDC046B0
S214003408759205007A9205003C9005008C8EFF1F89
S2140034187E9205002C900500948EFF1F9092050062
S21400342821AC0500A2920500A892050020AEFF1F59
S214003438C4ABFF1FC8920500DF920500E99205009D
S21400344808B5034B012118684AF010FA08BDC046B3
S21400345820AEFF1F08B5024B18684AF0A3F908BD4E
S21400346820AEFF1F08B5044B00221A70034B01213B
S214003478186838F065FA08BD0484FF1F20AEFF1FE1
S21400348808B5024B186838F09FF808BD20AEFF1F35
S21400349837B5474B4268019019681468A1420BD1AA
S2140034A859685468A14207D199689468A14203D123
S2140034B8D268D968914202D01B78FF2B6CD1C068BD
S2140034C831F0E1FA012865D1019BD868023031F065
S2140034D8DAFA384B1B88013B984259D1019B364C87
S2140034E859681D6B4A680B68043D134303D1334B78
S2140034F88A689A4203D00A20221C2E2302E0022061
S214003508221C102331F0FDFD01A831F092F92C4859
S21400351808F0BEFB201C08F0BBFB2A4808F0B8FBE6
S214003528281C08F0CBFB284808F0B2FB08F056FB2E
S214003538264B1A685B68801A99411C4B1A4AFDF795
S21400354859F908F0BBFB224808F0A2FB21480221E3
S21400355808F06AFB204B1878FF2801D008F0D0F84E
S2140035681E4B1B78002B0ED01D4C2378FF2B02D148
S21400357808F052F82070FA2120784900194A0023EA
S21400358808F06FFA0EE0FFF7A3FDFFF7B9FC09E0B5
S214003598154802E0154800E0154808F079FB01A830
S2140035A831F047F937BDC046E803000000000000C8
S2140035B810AEFF1F7E81FF1F34AEFF1F0000FFFF07
S2140035C808930500149305009BCE050028AEFF1F40
S2140035D813E50500EC9105005581FF1F08AEFF1F97
S2140035E87C81FF1F493000001D93050042930500AB
S2140035F85F930500C046C046F7B5002038F026FCA5
S214003608051E03D1334808F063FB61E001783248B1
S21400361808F05EFB314808F05BFB0821681CFFF7E2
S214003628E1FB2F4808F054FB00242E4808F050FB16
S21400363801940723234080221A41131CE208AA1883
S21400364852781A423ED0284FBB899B0AA34236D0EE
S214003658264E211C301C08F03BFB254808F038FB9A
S214003668A102244808F034FB214808F031FB062361
S21400367863433A681F48D318598808F029FB1E4840
S21400368808F026FB019B301C0933EF1839780F2306
S214003698194008F01DFB194808F01AFB3978301C49
S2140036A8890908F015FB154808F012FB3978301C14
S2140036B88906890F08F00CFB094808F009FB019BEE
S2140036C80133019301343F2CB3D1281C0CF078FE4B
S2140036D8F7BDC046869305009D930500AF93050089
S2140036E8EC910500C0930500A0ABFF1FC994050028
S2140036F815A10500009405001AA1050019A10500EA
S214003708104B13B5186837F03DFF041E16D0026834
S2140037184368082168460092019331F09EFEA18A0C
S214003728094808F0D5FA094808F0D2FA6846082188
S214003738FFF758FB064808F0CBFA02E0054808F001
S214003748A7FA13BD20AEFF1F0794050026940500B0
S214003758EC9105004294050070B588B06C460020D0
S21400376812340121021C05AB009433F015F93048D9
S21400377808F0AEFA00262F4B1B689E424BD2301C30
S21400378838F060FB051E44D0311C2B4808F0A0FA20
S2140037982A686B68082106A80692079331F05DFE32
S2140037A8264808F095FA082106A8FFF71BFB2448C8
S2140037B808F08EFAA98A234808F08AFA224808F000
S2140037C887FA08F00BFA174B154A80185941164A1B
S2140037D8164BFDF70FF8AB68C11A1C4808F078FAC4
S2140037E81B4808F075FAA97D1A4808F071FAAB8AE2
S2140037F822889B0A9B029A4201D1174800E0174884
S21400380808F066FA2969164808F062FA154808F0BA
S2140038185FFA0136AFE708B070BDC046C046C0467E
S21400382820A107000000000040420F000000000032
S21400383853940500E4900500A0940500DE9D05005D
S2140038481DA10500009405001BA10500C9940500EC
S21400385818A10500A9940500AD940500BA940500C2
S214003868C6940500EC91050013B538F0EBFA041E73
S21400387831D002684368082168460092019331F007
S214003888ECFD1B4808F024FA68460821FFF7AAFA58
S214003898184808F01DFAA18A174808F019FA08F01F
S2140038A89DF9104B0E4A801859410F4A0F4BFCF7EA
S2140038B8A1FFA368C11A114808F00AFAA17D1048AA
S2140038C808F006FAE1680F4808F002FA21690E487F
S2140038D808F0FEF902E00D4808F0DAF913BDC04614
S2140038E820A107000000000040420F000000000072
S2140038F8CC940500EC910500E1940500FC940500C5
S214003908219505003595050058950500759505001F
S214003918F0B597B0152101AA061C08F0D3FA051EC3
S214003928132D08D92D4808F0B3F9142008F0C6F965
S2140039382B4808F0ADF9019808F0AAFA294F041E9A
S2140039480CD08368002B09D00279AA420ED3281C13
S21400395801A9984700B2431C32D107E0224808F074
S21400396897F9019808F094F9204826E0E368002BB8
S2140039780DD0206808F08CF903211D4808F054F98A
S214003988E06808F085F91B48022108F04DF923691C
S214003998002B11D0184808F07BF9206808F078F951
S2140039A80121164808F040F9206908F071F9114815
S2140039B8022108F039F908E0114808F069F904E02E
S2140039C8022802D1A4683C6003E000233B6008F0AC
S2140039D815F9301C0CF0F4FC17B0F0BD89950500FD
S2140039E8A1950500D0050020A8950500BA95050004
S2140039F8CB950500EC910500CF9505001FA10500A5
S214003A08D8950500F0B5071C8BB00E1C002800D111
S214003A1802E148688349FCF7C3FD00283CD1B0683A
S214003A280024002506940795002808D0023006A929
S214003A380822FFF7E5F906A8082131F00EFD381C24
S214003A48311C794A08F0E3F9002803D053F0BEFC8D
S214003A58C4B200E0FF24381C311C744A08F0D7F9B9
S214003A68002803D053F0B2FCC1B200E0011C069A4D
S214003A78079B101C184360D06D486E4D0068009573
S214003A8801940291FFF750F8002801D16A4800E037
S214003A986A4808F0FDF850E070686949FCF780FD50
S214003AA8071E25D1B068002400250694079500282F
S214003AB80AD0023006A90822FFF7A2F906A80821AC
S214003AC831F0CBFC3C1C03E05E4808F0E1F8022429
S214003AD8069A079B111C194300D1A0E054490868B0
S214003AE8FFF772F8002801D1574834E0534832E00F
S214003AF870685649FCF754FD002820D1B0684C4C35
S214003B0800280DD04949FCF74BFD002802D1206853
S214003B18012107E0B0684E49FCF742FD002803D1B2
S214003B2820680221FFF788F82068FFF78BF8494BD2
S214003B388000C158484808F0CBF800246FE0706849
S214003B484649FCF72DFD041E08D1394B211C186880
S214003B58FFF772F8424808F09BF860E07068414941
S214003B68FCF71EFD0224002859D1314C2068FFF7C7
S214003B7869F8384B8000C158374808F0A9F83A4821
S214003B88276808F0A5F80A24013C06AD0095381CFD
S214003B981D21221C002332F0FFFE002836D104A87F
S214003BA80821069A079B0492059331F056FC2F4E7F
S214003BB8211C301C08F08CF82D4808F089F82D4890
S214003BC808F086F8082104A8FFF70CF92A4808F038
S214003BD87FF82989174B994203D0284808F078F8C7
S214003BE802E0274808F054F8264808F071F8A97A41
S214003BF8301C08F06DF8244808F06AF8EB7A012BB8
S214003C0801D1224800E0224808F062F8002CBBD117
S214003C18204808F05DF802E0FFF772F93C1C60B235
S214003C280BB0F0BD7A920500FA950500FE950500E2
S214003C3820AEFF1FFFFF0000059605001D96050035
S214003C48359605003C9605006A960500849605009C
S214003C588B9605005881FF1F92960500AB960500C7
S214003C68B396050075920500CD960500C994050023
S214003C781BA10500DE9D05001DA10500009405009A
S214003C880F97050016A1050014A105001697050054
S214003C981D97050025970500F7B50023051C019319
S214003CA830F06CFD041C01905DD0031C203383604B
S214003CB8103B4360281D30F07FFD0199206008689E
S214003CC800284DD08868294B1E685F6806604760E4
S214003CD88C689A68DB68A260E36089680B684E683F
S214003CE8334303D1224B8F689F420DD0FF2045F007
S214003CF8EBF8019B016842685C68216062605B685B
S214003D088668C7689E60DF60019B80211A1C4A325D
S214003D1811701B68052151705868012130F0DBFED0
S214003D28019B1B685868134B023019884A1C1A8076
S214003D3830F0D1FE019B1B685868002304301A1C1B
S214003D48AA4210D2002117249C42494149420B40FE
S214003D58191C403181540133013292B29BB2EFE70D
S214003D6801A830F066FD0198FEBDC04610AEFF1FE4
S214003D780000FFFF7E81FF1FF8B52F4B1888FFF75E
S214003D888BFF2E4C071C2E4E2E4D3FD02368002B43
S214003D9809D07A68186859681060516078689A6817
S214003DA8DB688260C360284B381C1A6859680A4367
S214003DB803D19968254B994202D08021002200E061
S214003DC8082143F0D2FB07F009FF214B214A18606F
S214003DD85960214B30781968002307F042FE1F4BC4
S214003DE81F491A88013A92B28A4200D81A801E8859
S214003DF8002E05D11B4B20681E700CF0E1FA2660D9
S214003E08287807F0BDFCFF232B7013E0154B1870BD
S214003E1820680CF0D5FA2878276007F0B1FCFF2454
S214003E2830782C7007F0ACFC0F48347007F030FF81
S214003E38FFF766F8F8BDC0466EAEFF1F30AEFF1F30
S214003E485581FF1F7C81FF1F10AEFF1F0000FFFF7C
S214003E5828AEFF1F3130000068AEFF1F0AAEFF1FF6
S214003E68FDFF000008AEFF1F4597050038B5264839
S214003E7807F00EFF2548022107F0D6FE244C2378CB
S214003E88002B3BD0234B1888FFF706FF002831D0BD
S214003E98214B1B68002B09D0456819685A682960A9
S214003EA86A6041689A68DB688A60CB608021002275
S214003EB843F05BFB194B1A491A88013A92B28A42B8
S214003EC800D81A801B88002B00D1237007F086FEC6
S214003ED8144B18605960144B1878FF2806D0134BFB
S214003EE8134A1968002307F0BCFD0BE0114807F0D9
S214003EF8CFFE07E0104807F0CBFE01E0FFF7E8F832
S214003F08FEF7FEFF38BDC0466C970500EC9105002D
S214003F1808AEFF1F6EAEFF1F30AEFF1F0AAEFF1FB4
S214003F28FDFF000028AEFF1F5581FF1F68AEFF1F6C
S214003F38313000007F97050045970500F7B57346B2
S214003F480193041C0E1C002807D16D4B1B78002B10
S214003F5800D1B3E0FEF7D4FFB0E06A4D20232B80F3
S214003F68694FFA23DB00694A3B6007F050FF0028D8
S214003F7803D053F02BFA63490880201C311C644A8E
S214003F8807F045FF00280AD053F020FA614B80B2AC
S214003F98984201D9386002E0FA23DB003B60201C17
S214003FA8311C5D4A07F033FF002803D053F00EFAA1
S214003FB885B200E0051C201C311C584A07F027FF74
S214003FC8009000280ED0019B802212061A4300217A
S214003FD810200CF0C1F9524B021C186000990A20F8
S214003FE830F058FF013CE4B20436A40034190094BB
S214003FF8341C0098844207D001CC4A4902220DF0AE
S21400400852FA0028F5D0484D341C002600998C42F8
S2140040185AD021680A1C1378002B05D02E2B4FD0B7
S2140040283A2B4FD00132F6E7002E05D0301C3F4A17
S21400403830F030FF012801D00434E7E7304A3C4B23
S2140040480121494210701980002D42D103221A809E
S2140040582C4A1088FFF720FE051E4CD0304B1B68F4
S214004068002B09D06A68186859681060516068683B
S2140040789A68DB688260C360281C80210A2E00D0FC
S2140040880821002243F071FA07F0A8FD294B2A4DB3
S214004098186059602B78FF2B28D107F0BDFA2870D6
S2140040A8FF2821D03968254A002307F0DAFC154B8B
S2140040B821681A88224807F00BFE022460B2FEBD6B
S2140040C80226B3E70A26B1E71E4807F0E1FD0124F9
S2140040D8F4E7012D02D100231370B9E7124A95427E
S2140040E8B6D0013D1D80B3E7174800E0174807F033
S2140040F8CFFD0024E2E7164807F0CAFD2C1CDDE7D2
S21400410808AEFF1F6EAEFF1F68AEFF1F9197050033
S21400411894970500CF070000979705009A97050023
S21400412830AEFF1F9D970500FFFF000010AEFF1F73
S2140041380AAEFF1F28AEFF1F5581FF1F3130000053
S214004148A0970500F8970500C4970500DF970500B7
S21400415845970500F0B58FB0061C73460C1C09A8D9
S21400416862490422079353F073F9032E00D8B4E08B
S21400417860685F49FCF714FA002804D1002202237D
S2140041880692049308E060685A49FCF709FA002882
S214004198F4D1012206920490A0685749FCF700FA69
S2140041A801230293002819D0A0685449FCF7F8F9AF
S2140041B802220292002811D0A0685149FCF7F0F9B3
S2140041C803230293002809D0A0684E49FCF7E8F9B3
S2140041D804220292002801D04B487FE04B4D2B78F2
S2140041E8FF2B07D100230093181C09A91A1C47F0B7
S2140041F881FB2870287846F0A7FD071E72D00A2093
S214004208E1680AAA30F046FE042E02D100252C1CCE
S2140042184CE02569002D19D000231A1C297800299E
S2140042280ED02F2908D1002B03D0381C0B2147F0BD
S214004238E3FA6A1C002301E00133DBB20135EDE73F
S214004248002B03D0381C0B2147F0D6FA052EDDD0FC
S2140042586669002EDAD0301C53F06CF92C49051C20
S2140042686069FCF79DF9002810D1A06953F062F93F
S2140042780390E06953F05EF90590206A53F05AF906
S214004288039B0435059AED18AD182D18281C002137
S214004298079A0CF061F8041E08D000212A1C0DF0BD
S2140042A811F9201C311C2A1C0DF0E6F8381C0AA946
S2140042B810220DF0E1F8029A3B1C48331A80069A41
S2140042C8023B1A70134B381CBB62211C2A1C46F092
S2140042D805FE201C0CF074F804E00F4807F0D8FC24
S2140042E8002000E0049840B20FB0F0BD2C8705000F
S2140042F8179805001B9805001F98050023980500C9
S214004308289805002C980500C89205008081FF1F94
S21400431833980500C92F000037980500F0B5061C2D
S21400432895B00C1C4868B449FCF73AF9002810D137
S214004338B24B1A68B24B9200D3581A1C2A32147819
S214004348002C18D1AF4807F0A3FCAF4BAF481A684B
S21400435823E06068AE49FCF723F9002821D1A74B73
S2140043681A68A74B9200D3581A1C2A321478002CC5
S21400437801D1A8480CE0012C05D0A74807F088FC16
S21400438807F03CFC9AE393331C78002CF5D1A3483D
S21400439807F07EFC9C4BA2481A68211C30F0B8F93E
S2140043A8EEE760689F49FCF7FBF8002817D19E499E
S2140043B8A068FCF7F5F8011E04D1934B9B481A68D1
S2140043C830F0A6F99A49A068FCF7EAF8011E00D072
S2140043D874E38D4B97481A6830F09AF96EE3606874
S2140043E89549FCF7DDF8002800D090E0A0689349CE
S2140043F8FCF7D6F8FF25061E2DD191490822043170
S21400440808A853F025F8E06853F094F8311C051C0A
S21400441820220CA80DF056F82A1C0CA8E1680DF00E
S2140044282BF82269002A0AD008A8311C08220DF0A9
S21400443849F8206908A902300822FEF7E1FC6F4B0C
S21400444808A91868082200950CAB4AF027F84542D8
S21400445845416D42EDB27B49A068FCF7A1F8011E04
S21400446815D10CA808220DF02DF8E068002804D015
S21400447802300CA90822FEF7C3FC604B0CA918688A
S214004488082249F053FB4342584140420540A06881
S2140044986D49FCF785F8061E04D1584B351C18687C
S2140044A849F066FBA0686949FCF77AF8061E00D052
S2140044B8F9E2674807F00CFC66480BF0F8FE041CA7
S2140044C8002C00D1EFE2311C634807F001FC63487A
S2140044D807F0FEFB201C0821FEF784FC231C313362
S2140044E81B78271CE0182022D21A11300021113719
S2140044F80CF0E8FF391C5A4807F0EAFB594807F061
S214004508E7FB201C0BF0DFFE0136041CD8E76068CA
S2140045185549FCF745F8002816D1A0685349FCF71A
S2140045283FF8002804D1354B022118684EF01CF8D5
S214004538A0684F49FCF734F8002800D0BEE22F4B9D
S214004548186837F00BFB8BE260684A49FCF728F8D6
S21400455800282BD10CAD0A23EB80284E464BA068CA
S2140045680C93336845499A00254BD3581B7E6B71CC
S214004578FCF716F8002801D101230DE0A068404991
S214004588FCF70EF8002806D0A0683E49FCF708F8A5
S2140045980323002800D002233068291C2B7137F02B
S2140045A80DF8042800D089E237485DE13049606894
S2140045B8FBF7F6FF011E00D0D9E0344B0CAD1B68A4
S2140045C8281C1E2207930CF07DFF211C301C304A45
S2140045D807F01DFC011E03D00A2008AA30F05AFC7A
S2140045E8301C211C2B4A07F012FC002854D052F02D
S2140045F8EDFEC7B251E0C0465D98050020AEFF1F2D
S214004608C4ABFF1F6498050064AEFF1F8934000022
S2140046184BA00500A5980500909805007998050018
S2140046286D340000B9980500E29E05005D34000070
S214004638C698050049340000CB9805007A92050014
S2140046482C87050035960500D2980500DC980500ED
S214004658E198050068850020A0940500DD9D05000A
S214004668E09A0500EC9105000299050007990500F7
S214004678109905001899050000F8FF071D99050010
S214004688249905002B9905003099050084900500AB
S214004698479905004A9905004027301C211CCA4A3C
S2140046A807F0B5FB002802D052F090FE0790684647
S2140046B8433007992F7030F012FA6846313008A94F
S2140046C810220CF0D9FEA068C049FBF769FF002845
S2140046D834D1301C211CBE4A07F099FB002805D0AF
S2140046E8AB7C09221343AB740123EB75301C211CE9
S2140046F8B84A07F08CFB0CAD002805D0AB7C11221D
S2140047081343AB740123EB75301C211CB24A07F027
S2140047187EFB00280CD02A7E03239A4301231A43E3
S21400472868462A76493007A904226B770CF0A4FE5F
S214004738AA4B291C186832F071F991E1A068A849BB
S214004748FBF72EFF002806D1A44B391C186808AAC8
S21400475832F07FF984E1A068A249FBF721FF002820
S21400476800D0ABE19D4B186832F088F978E16068B4
S2140047789D49FBF715FF061E00D098E0A0689B49E8
S214004788FBF70EFF9A4F051E18D19A4807F0A0FAB5
S2140047982C1C3B191B7C3959002B01D0964A00E08B
S2140047A8964A974807F094FA1434F5239B009C42DF
S2140047B8EFD183E10136312E00D17CE100220023BF
S2140047C80CAD002108920993281C202206910CF0B3
S2140047D879FE14237343FA58A068111C04930392B5
S2140047E8FBF7DEFE0028E5D1049BFF18FA68049262
S2140047F8002A0AD0E068002804D052F0E7FD049B9F
S21400480898475BE1049A904758E13B79734E0095C8
S2140048180593191C3068049A06AB32F0BDF878790F
S214004828042800D94AE1FBF7CFFE2203072F16001B
S2140048382A78744803990BE007AB0022306805997C
S214004848009306AB079232F0A7F86F480399079AC9
S21400485807F03EFA32E16D48039907F039FA0699EF
S214004868281CFEF7BFFA6A4807F032FA26E1A06865
S2140048786849FBF795FE002802D164486649ECE7CC
S214004888664803992A1CE3E708AC002206AB3068A2
S2140048980599009432F080F8201C082130F0DDFDE0
S2140048A803995A4807F014FA201C0821D9E76068CB
S2140048B85B49FBF775FE002800D0D8E0051C1427D6
S2140048C86F434B4EA068B959FBF76AFE002800D024
S2140048D8C8E0F619337C002B01D15248ECE0707919
S2140048E8042800D9EAE03D4FE3680CAEFBF76CFEFF
S2140048F81E030DA45B00181C52F068FD14235D43CC
S2140049083B4A0C9055193868A4E00024981C464980
S214004918321C0C9452F0D0FD14235D43344B386897
S2140049285D192979AB680096221C97E0181C52F08E
S21400493801FE0CAE0390E168039A301C0CF09CFD57
S21400494814235D432A4A55192979182906D1039B49
S2140049583868DAB2311C3EF0B9F981E015291DD164
S214004968301C324903220CF09EFD0024A04200D1E0
S2140049780324301C2E4903220CF095FD002800D095
S2140049880224301C2B4903220CF08DFD002800D091
S21400499801243868211C36F0B9FD61E03868002229
S2140049A80096039B5AE014225543114A981C551941
S2140049B8AC68311C221CFEF723FA38682979009661
S2140049C80022231C4AE0C0469D9705007A920500FF
S2140049D84F9905005A9905006099050020AEFF1FFB
S2140049E835960500D2980500699905006D99050069
S2140049F8B4AD050078990500579805005A98050043
S214004A0895990500A0990500A9990500B49905008F
S214004A18EC910500BB990500C8990500D4990500D6
S214004A2829A90500DD990500F1990500F499050006
S214004A38F8990500FC990500981C311C0822FEF719
S214004A48DFF9301C082130F008FD14235D431D4BA8
S214004A5838685D192979AB680096002231F074FD34
S214004A68051C20E00135312D00D028E723E06068DA
S214004A781549FBF795FD002813D1A0681349FBF7E5
S214004A888FFD00281AD1E0680CAC1149221C0230B0
S214004A9852F012FD0F4B21881868890A36F064FD1B
S214004AA8DEE70D4808E0FF2D08D0002D01D00B48A2
S214004AB802E00B4800E00B4807F0EAF8002015B0C3
S214004AC8F0BDC046B4AD050035960500009A050051
S214004AD8079A050020AEFF1F0B9A0500C89205002E
S214004AE8DF9205001C9A050010B5094C2378002BA8
S214004AF80DD1084B1860084807F03AF9074B084AE2
S214004B0808480D211A6007F075F90123237010BDB7
S214004B186CAEFF1F64AEFF1F2F9A0500CC05002061
S214004B28613000007CAC0500F0B5051C97B000208D
S214004B3843F090FE036800211A1C3E3216784A4855
S214004B48DA6807F0C5F80027301C391C44F074F8FA
S214004B58041E5CD00AAA2E230A20211C30F0D1FAA3
S214004B6802232A1C9A437AD123780433DBB2012B1A
S214004B782AD8102303933D4B1C21186804AB0093D6
S214004B8803AB31F009FF201C04A908220CF08BFCAB
S214004B98002815D0A37BFC2B16D0354807F098F8CC
S214004BA86289FF2333481B029A4202D1A389FE2B4F
S214004BB801D0402100E010210AAA07F089F803E096
S214004BC82D480AA907F084F8002D08D123781F225B
S214004BD89343202B03D129480AA907F079F8012D19
S214004BE815D82378FE2B12D163783F229343802B67
S214004BF80DD16289FF2340211B029A4203D1A38963
S214004C08FE2B00D110211E480AAA07F061F80137CA
S214004C18092F99D1002D25D11A4C301C211C43F0A0
S214004C28B3FE002809D0211C0A200AAA2E2330F039
S214004C3868FA15480AA907F04BF8144C301C211CD2
S214004C4843F0A2FE00280DD0211C0AAA2E230A2013
S214004C5830F057FA0AA90E4807F03AF802E0032D92
S214004C68BDD1B3E717B0F0BD329A050020AEFF1FDE
S214004C78459A05005B9A0500679A0500839A050021
S214004C88999A050078990020BA9A05006899002034
S214004C98E59A050030B50C1C87B0012803D1002022
S214004CA8FFF742FF2FE004282AD188681749FBF748
S214004CB877FC002824D1606852F088FBE168051C60
S214004CC802AA0A2030F0E6F8012801D0104818E0B9
S214004CD8281C43F0BFFD036802A93E33187840231A
S214004CE800930123FF225B4243F0F6FF002803D01F
S214004CF8052803D1074804E0074802E0074800E013
S214004D08074806F0C5FF002007B030BD109B050019
S214004D18139B05003D9B0500289B0500539B05003B
S214004D28599B050008B50D4806F0B2FF0C4B0D4818
S214004D385A78197812020A439978DB7809040A43E4
S214004D481B061343196806F0C3FF074806F0A0FFC2
S214004D58064806F09DFF06F051FF08BD6B9B050050
S214004D6820E80500809B0500859B0500D09B050074
S214004D7838B5041E00D188E08378444A44489B002E
S214004D889A581B58207837331D78637800041B061A
S214004D98C318E07811781B182079128900021B18AE
S214004DA83C48834259D017D83B4883424FD00AD84C
S214004DB83A4883422ED035D83948834262D139489A
S214004DC806F086FF59E0384A934242D043D8374A1D
S214004DD8934257D136484BE0364A93420FD8364A64
S214004DE8934234D2354A93423BD0354A934249D10E
S214004DF80DF05EFC011C334806F06AFF42E0324ABA
S214004E08934232D0314A934231D0314A934239D113
S214004E1830482DE0304B314A1B68D35C012B31D02B
S214004E282F481BE02F48111C06F052FF04232B4086
S214004E3804D02D4806F02CFF012301E0002D1CD0DD
S214004E48AA0718D5294A1268012A14D115E0284855
S214004E580EE0284802E028480AE0284806F018FF2E
S214004E6810E0274806F014FF07E0264800E026482A
S214004E7806F00EFF04E0002B04D00220FFF754FED5
S214004E8806F0BCFE201C0BF09BFA38BDCCABFF1F0F
S214004E98C4ABFF1F1100050303000303010003034F
S214004EA801000203CA9C05000F0005030A0005035B
S214004EB8AA9C050007000603060006031200050361
S214004EC8170005035D9D05000A000603110006038A
S214004ED808000603909D050020AEFF1F42860020AE
S214004EE8F29B0500119C05003B9C05005081FF1FA6
S214004EF8599C0500689C0500889C0500099D0500CE
S214004F08329D05003D9D05007D9D0500F8B5041EF3
S214004F183BD0037A002B06D1037C002B03D11B4819
S214004F2806F0B6FE31E0E368002B09D0184806F014
S214004F38AFFEE068217AFDF755FF164806F0C8FE72
S214004F48237C002B02D106F059FE1EE00025237CA8
S214004F58AB42F8D906276F431037E719291C0E48C5
S214004F6806F0B6FEB9880D4806F0B2FEB9790C48C8
S214004F7806F0AEFEF9790B4806F0AAFE01357988E8
S214004F88094806F0A5FEEDB2E1E7F8BDAC9D0500C0
S214004F98C09D0500EC910500E19D0500F39D050008
S214004FA8089E05001C9E05002B9E050000207047E5
S214004FB8002070470020704708B50379002B02D000
S214004FC8007843F01FFC08BD73B5041C007843F056
S214004FD819FC061C2FF0D2FB051C019033D00020CC
S214004FE82FF0EAFB019B28601A68002A28D021893E
S214004FF8181C9160616840305160D960E17A1A1CCB
S2140050084C3211709E63A17A013A1170E28B191C1A
S21400501854310A8002390A80621CD17F1A1C503229
S2140050281170A21CD17F1A1C4F321170211C0C3132
S21400503809220CF021FA0198054942F0D1FB05E057
S21400504801A82FF0F6FB60680BF0BAF973BDC046EE
S214005058DD86000003682C491A6830B51268D960E6
S21400506803681E213F3319700368041CD97A85B07B
S2140050780420012946D1191C3E310978012941D856
S214005088A021C90019813433082119709368106863
S2140050985B6B9847021C20680B1C2C302FF055FDC4
S2140050A823681A4918684EF039FA236800251868E4
S2140050B83E3319784EF025FA154B1B689D4216D2DA
S2140050C8144AAB00D1580B7F1A070ED022680B7C07
S2140050D83E321078984208D10F4B0A689A4204D19B
S2140050E84B68002B01D143F0BBFE0135E4E723688B
S2140050F800213E3318784023009301230A1C5B42A4
S21400510843F0EAFD05B030BD90B1050088B1050052
S21400511830900500D08EFF1FFE80000038B503686B
S2140051280C1C1B68151C1B68D9688A7800218A42E3
S21400513804D19A681868536A9847011C2A1C201CD0
S214005148083230F0D5F8002038BDF7B50223041C25
S2140051580D1C061C326817680092002F02D0013317
S214005168009EF7E7022B1AD93760201C2FF0A1FB08
S214005178391C0190201C2FF0A5FB071E0DD0201C03
S2140051882FF040FB60680BF01BF9019B009AA360A8
S214005198012367602260237301E0009B3360626826
S2140051A8A3686A602268AB602A60237B201C2B7386
S2140051B80BF006F9F7BD000070B5836B8EB0019052
S2140051C81D68EB69002B06D1019B02AC18680368C2
S2140051D8002B04D121E098470028F5D159E02FF09C
S2140051E868FB019B061C1868A02E12D800212FF019
S2140051F869FBA060002808D000236360019801239B
S214005208E66023742FF0FEFA10E001A82FF011FBD9
S2140052183FE003A9FFF799FF08E041688268A160AC
S214005228E2606360037B23740BF0CAF8019B0022DC
S214005238191C1A604B310878694633310870191CF6
S2140052484F310878144E0DA9087030680CA98A707A
S21400525808702D6801310A701A1C029550321178B0
S2140052686A46353211701A1C523212889B68E285DB
S21400527819685A68A161E2619868D9682062616213
S21400528801A82FF0D6FA3368201C013333604EF09D
S21400529871F900200EB070BD70AEFF1F08B5054B43
S2140052A8984205D004484421044A054B00F0E2FA27
S2140052B8002008BD00B003401FB20500B8B10500C5
S2140052C85EB2050038B5041C0D1E05D125484B21D5
S2140052D8254A264B00F0CEFAFFF7E0FF244B802243
S2140052E8196812050A431A6029790C2289001140A8
S2140052F86A78032313406A791943042A01D01023D5
S2140053081943EB7860205B0103400B43E9790029D9
S21400531801D080210B43A360E3680F218B43042A46
S21400532802D003210A401343AA79002A01D0042296
S2140053381343AA78002A01D008221343E360226A9E
S214005348297803239A430B40134323622A7A0823B7
S214005358002A02D0626A134302E0626A9A43131C68
S214005368636238BD1FB2050014B2050085B2050099
S2140053783C80044008B5002805D10A4887210A4A17
S2140053880A4B00F077FA012200230321827002718B
S214005398042203704170C17042718371C371037235
S2140053A808BDC0461FB20500FDB1050085B2050060
S2140053B8436A07229343042904D004221343032292
S2140053C811400B4343627047031C006A802210405A
S2140053D85A6A40231A4200D018437047F7B5026A43
S2140053E84023041C00261A4203D0026A01269A4368
S2140053F82262636AC0221343636223681A0606D4CD
S214005408201CFFF7E1FF4106F7D5012500E000253F
S21400541823690193002E03D0236A40221343236294
S214005428201CFFF7D1FF0123410629D4002D27D1E0
S214005438E36CA76C666CFB18206C9B19E16B1B1859
S214005448A26B5B189B180193019A80231B025208D3
S2140054581A430192019AE262E26EA16E676E8C466A
S214005468266E6244E06DD219A16D92191218521870
S2140054780192019A520813430193019B23632B1C44
S214005488181CFEBD10B5012905D94E210E48FF315E
S2140054980E4A0F4B06E0002A06D1A7210A480B4AF7
S2140054A80C4B490000F0E6F914681F232340547992
S2140054B8002C01D0202423431279002A01D0402250
S2140054C8134389000B5010BD1FB20500CAB1050072
S2140054D894B2050085B2050008B5012906D96421ED
S2140054E80548FF31054A064B00F0C4F989000858FC
S2140054F88023184008BDC0461FB20500E1B105006C
S21400550894B20500074B9A79D10702D4064B18685F
S21400551806E0187A054B00071B68400FC340181CA6
S2140055287047C046004006408881FF1F8C81FF1FD9
S21400553808B50C4B1B7BDA0708D40B4B18680028F9
S2140055480ED10A48C7210A4A0A4B07E00A4B1868D0
S214005558002805D10548064A084BCC2100F08AF9F0
S21400556808BDC0460040064074AEFF1FC8B205001E
S214005578B1B2050007B3050078AEFF1F13B30500E8
S21400558838B5144CA579ED06ED0F1FD1FFF7D0FFFF
S214005598021C281C002A1BD0237860789B06217BD7
S2140055A85B0F8406101CC9B2A40FD840002C0FD07D
S2140055B8CA070DD4062B03D0072B03D0400907E0F3
S2140055C8142100E00C21FBF713F801E0024B1868E1
S2140055D838BDC046004006408881FF1F08B5064B08
S2140055E81868002806D166210448FF31044A054B8E
S2140055F800F040F908BDC04674AEFF1FC8B20500EB
S21400560820B3050007B30500074B4168074A10B5E5
S2140056189950C178C022120389041C681140044AB4
S21400562822400A431A6010BD00700440441000006F
S214005638FFFFF3FF38B50B4C002563789A070ED4A6
S214005648FFF79EFFA8420AD0E278E3785206920F48
S214005658DB095200D218044B5200D55A4543281C81
S21400566838BDC0460040064038B3050008B50A4BAA
S2140056789B791B079B0F012B09D0002B04D0022B0C
S21400568808D1FFF755FF06E0FFF7D4FF03E0FFF762
S21400569839FF00E0002008BD0040064038B5084D38
S2140056A8084CFFF7E3FF2959090F0131FAF7A0FF65
S2140056B829594903490F0131FAF79AFF38BDC04600
S2140056C8007004404410000008B5044B00201B7806
S2140056D89A0701D5FFF716FF08BDC04600400640EA
S2140056E830B50E4B0122197B1D7B041C95431440D4
S2140056F811402A1C22431A73002805D15A785407E9
S21400570802D59A799407FCD5814205D0044B013B13
S214005718002B01D0C046FAE7002030BD0040064006
S214005728DD05000070B51D4B9C799D791E7A24070F
S2140057383607A40FEDB2760FB24217D0EE0708D49C
S2140057481D7A0E26520032402F26B5432A431A7277
S2140057580CE0012C02D01D78AE07F1D55D78012645
S214005768B5435D709D79EE07FCD4E9E75E780122C3
S2140057780D1C96431540321C2A435A701A78032586
S214005788AA4302431A70012C01D0820704D59879DF
S214005798012202408A42FAD1002070BD004006402D
S2140057A803680D4910B500228B4204D90B4A9A4269
S2140057B89241524201320A4B3C215C788C43017973
S2140057C80C431101221C0A435A700279002A02D09F
S2140057D89A799107FCD510BD9798000000127A00B8
S2140057E800400640F7B51B4C0092E578A779EDB265
S2140057F8FF06FF0F0026012F04D1E278202672400C
S214005808E2703E1CC000382227780240019203202E
S2140058180740019838432070A079C706FCD4002EAC
S21400582801D00C48C5701F2005400098C9014201E8
S2140058386020024011432943C9B2E170E2788A42E7
S214005848FCD1A2791207920FFBD1002B00D0984703
S2140058580020FEBD0040064070B50E1C151C1C1C22
S214005868FFF73EFF301C291C221C049BFFF7BAFFDB
S21400587870BD000037B5051C0C1C0092191C0348A7
S2140058882A1C231C0CF0A4F800BEFDE748B305004C
S214005898F0B585B00191EFF3108572B60E4E0F4A3B
S2140058A8B36893420ED00E4F0023BF080297029F9C
S2140058B8BB4206D00B499C000F59084901330F51CB
S2140058C8F5E7B260019A0549103080000A5085F362
S2140058D8108805B0F0BDC04600ED00E00080FF1F50
S2140058E8C00000000000000008B50368002B01DABD
S2140058F8024B00E0024B1B68984708BD84AEFF1FAA
S21400590888AEFF1F08B5074B1968002905D1064859
S2140059180649074A074BFFF7ADFF0748FFF7E4FFBE
S21400592808BDC0467CAEFF1F9CB305004C060000B1
S21400593886B3050020B4050000C0024008B5074B32
S2140059485968002905D106480649074A074BFFF754
S21400595891FF0748FFF7C8FF08BDC0467CAEFF1F8B
S2140059689CB305005406000040B4050030B405009A
S21400597800D0024070B5002806D1CE212048890004
S214005988204A214BFFF776FF037C8168CB77C368F4
S2140059980468002B02D1416801222EE0027C81684F
S2140059A852018A181949521811689288C91A12069B
S2140059B8D20F4909002A03D1002900D1017D0139F7
S2140059C8437CC9B25BB2994207D1C57C067D0023E9
S2140059D8AE4209D1C37C5BB206E0437C5BB2CB1A0D
S2140059E802D5057D6DB25B19C9B24174C17CC91A6E
S2140059F8C9B2C174002C01D04168A04770BDC0462A
S214005A0865B4050056B405007CB5050018100000FE
S214005A1808B5024B1868FFF7ADFF08BD8CAEFF1F30
S214005A2808B5024B5868FFF7A5FF08BD8CAEFF1FE8
S214005A3808B5024B9868FFF79DFF08BD8CAEFF1FA0
S214005A4808B5024BD868FFF795FF08BD8CAEFF1F58
S214005A588023037003785BB2002BFBDA704770472D
S214005A6802688023DB0013430360BFF36F8FBFF326
S214005A784F8F70477047002806D0C369002B05D0A3
S214005A881B68022B02D103E0042002E06D2000E030
S214005A980020704710B50C4C70232370FFF7EBFFFF
S214005AA800280FD1094B201C1B68984723786720CD
S214005AB8DBB29A0606D46820DA0603D4012018401A
S214005AC800D0692010BDC04600000240E0AEFF1FAF
S214005AD830B5041E11D0081C1043013B0340652056
S214005AE8002B0BD125686620A94207D3891862685F
S214005AF8AD18A94202D8181C00E0042030BDF8B53D
S214005B08061C0F1C141C0425002813D0101C00218A
S214005B18202251F0A6FCF3687068B16863602760BD
S214005B28FAF766FD0823E560A561E561A0602361D4
S214005B3863610025281CF8BD38B5002834D0C46930
S214005B481A491B4A0123656899439A438A4208D929
S214005B58521A402A06D917481749184A184BFFF709
S214005B6889FE4022281C51F073FC164B0135164955
S214005B78164A1D600123A56899439A438A4208D9A4
S214005B88521A402A06D90B481149124A0C4BFFF7FD
S214005B9871FE4022281C51F05BFC0F4B01351D603E
S214005BA802232360002000E0042038BD595A000074
S214005BB8675A0000DFB605008E070000C8B6050065
S214005BC81EB70500E0AEFF1F695A00007D5A0000A8
S214005BD81C0800004FB70500DCAEFF1F38B5041ED2
S214005BE832D01A4B1A4AD3581B011B0F0F2B04D05E
S214005BF8184A5B009B5A9B0201E080231B036360E4
